:020000040800F2
:1000000050070020CD0100083D050008D703000877
:1000100039050008A9020008BF0700080000000019
:100020000000000000000000000000006105000862
:10003000AD020008000000003F050008750600083A
:10004000E7010008E7010008E7010008E7010008F0
:10005000E7010008E7010008E7010008E7010008E0
:10006000E7010008E7010008E7010008E7010008D0
:10007000E7010008E7010008E7010008E7010008C0
:10008000E7010008E7010008E7010008E7010008B0
:10009000E7010008E7010008E7010008E7010008A0
:1000A000E7010008E7010008E7010008E701000890
:1000B000E7010008E7010008E7010008E701000880
:1000C000E7010008E7010008E7010008E701000870
:1000D000E7010008D9060008E7010008E701000869
:1000E000E7010008E7010008E7010008E701000850
:1000F000E7010008E7010008E7010008E701000840
:10010000E7010008E7010008E7010008E70100082F
:10011000E7010008E7010008E7010008E70100081F
:10012000E7010008E7010008E7010008E70100080F
:1001300000F002F800F03AF80AA090E8000C8244BF
:100140008344AAF10107DA4501D100F02FF8AFF29C
:10015000090EBAE80F0013F0010F18BFFB1A43F0A5
:1001600001031847BC070000DC070000103A24BF59
:1001700078C878C1FAD8520724BF30C830C144BF0C
:1001800004680C607047000000230024002500264E
:10019000103A28BF78C1FBD8520728BF30C148BFEA
:1001A0000B6070471FB51FBD10B510BD00F033F8D0
:1001B0001146FFF7F7FF00F04FFB00F051F803B4D2
:1001C000FFF7F2FF03BC00F0FCFA0000094880478B
:1001D00009480047FEE7FEE7FEE7FEE7FEE7FEE729
:1001E000FEE7FEE7FEE7FEE704480549054A064B41
:1001F0007047000079060008310100085001002016
:100200005007002050030020500300207047704723
:10021000704770477047754600F02CF8AE460500F1
:100220006946534620F00700854618B020B5FFF711
:10023000DBFFBDE820404FF000064FF000074FF015
:1002400000084FF0000B21F00701AC46ACE8C009F4
:10025000ACE8C009ACE8C009ACE8C0098D467047FD
:1002600010B50446AFF300802046BDE81040FFF70C
:10027000A6BF000000487047EC00002008B501212F
:10028000082000F05DF910208DF803000001ADF8A2
:10029000000003208DF802006946024800F007F8CC
:1002A00008BD0000000C014000BFFEE770472DE9CB
:1002B000F0410246002500260020002300240027EC
:1002C00091F803C00CF00F0591F803C00CF0100C6E
:1002D000BCF1000F03D091F802C04CEA050591F87B
:1002E00000C0BCF1000F31D0146800202BE04FF0AB
:1002F000010C0CFA00F3B1F800C00CEA03069E42B0
:1003000020D183004FF00F0C0CFA03F7BC4305FA21
:1003100003FC4CEA040491F803C0BCF1280F06D199
:100320004FF0010C0CFA00FCC2F814C00AE091F87E
:1003300003C0BCF1480F05D14FF0010C0CFA00FCD2
:10034000C2F810C0401C0828D1D31460B1F800C016
:10035000BCF1FF0F34DD546800202EE000F1080CE2
:100360004FF0010808FA0CF3B1F800C00CEA0306DC
:100370009E4221D183004FF00F0C0CFA03F7BC43CF
:1003800005FA03FC4CEA040491F803C0BCF1280F01
:1003900005D100F1080C08FA0CF8C2F8148091F8A5
:1003A00003C0BCF1480F07D100F1080C4FF0010861
:1003B00008FA0CF8C2F81080401C0828CED354600C
:1003C000BDE8F0810246002093680B400BB101208C
:1003D00000E00020704700BFFEE7000008B50121E3
:1003E000042000F0ADF80121402000F0A9F84820D9
:1003F0008DF803001C20ADF8000069460648FFF7A1
:1004000056FF28208DF803000120ADF80000694652
:100410000248FFF74CFF08BD0018014000080140EA
:1004200010B5044614B101202C4908702B480078FF
:10043000002837D010212A48FFF7C4FF78B10821DF
:100440002748FFF7BFFF50B104212548FFF7BAFF47
:1004500028B101212348FFF7B5FF012822D10A2046
:1004600000F0D4F900201D49087010211C48FFF746
:10047000A9FF08B9012010BD08211948FFF7A2FF04
:1004800008B90220F7E704211548FFF79BFF08B9D8
:100490000320F0E701211348FFF794FF01281BD147
:1004A0000420E8E710210E48FFF78CFF012813D144
:1004B00008210B48FFF786FF01280DD104210848C9
:1004C000FFF780FF012807D101210648FFF77AFFD7
:1004D00010B90120014908700020CCE7220000205B
:1004E000001801400008014008B50121082000F073
:1004F00027F80121402000F023F810208DF8030098
:100500002020ADF8000003208DF80200694608485D
:10051000FFF7CDFE10208DF803002020ADF800007D
:1005200003208DF8020069460248FFF7C0FE08BDAF
:10053000000C01400018014000BFFEE77047704703
:1005400029B1064A92690243044B9A6104E0034AC6
:1005500092698243014B9A6170470000001002408B
:10056000704710B500F002F810BD00000CB5002077
:10057000019000903348006840F4803031490860B1
:1005800000BF3048006800F4003000900198401C23
:100590000190009818B90198B0F5A06FF1D12948E1
:1005A000006800F4003010B10120009001E000204C
:1005B00000900098012843D12348006840F01000C3
:1005C000214908600846006820F0030008600846DA
:1005D000006840F0020008601A4840681949486005
:1005E0000846406848600846406840F480604860BB
:1005F0000846406820F47C1048600846406840F493
:10060000E81048600846006840F08070086000BF4D
:100610000C48006800F000700028F9D009484068D4
:1006200020F00300074948600846406840F0020097
:10063000486000BF0348406800F00C000828F9D16A
:100640000CBD00000010024000200240042808D128
:100650004FF0E021096941F004014FF0E0221161FF
:1006600007E04FF0E021096921F004014FF0E0229A
:10067000116170477047000010B51348006840F0E2
:1006800001001149086008464068104908400E49B9
:100690004860084600680E4908400B490860084653
:1006A000006820F4802008600846406820F4FE00BE
:1006B00048604FF41F008860FFF753FF4FF0006061
:1006C0000449086010BD0000001002400000FFF85F
:1006D000FFFFF6FE08ED00E010B540F225511D4881
:1006E00000F03EF810B31B4800F064F8C4B21A489A
:1006F000008800F40040C8B91748008800F4804022
:1007000060B10A2C03D000201349088020E0124871
:10071000008840F400401049088019E00D2C06D1F3
:100720000D48008840F480400B49088010E00A48DA
:100730000088C0F30D0009490C5407480088401C8C
:100740000549088008460088C72801DD0020088088
:1007500010BD0000003801402000002024000020CF
:1007600070B50246002400230025002040F66A16DA
:10077000B14200D100BFC1F3421501F01F030126B1
:1007800006FA03F3012D02D19689334006E0022DCB
:1007900002D1168A334001E0968A33400C120126BA
:1007A00006FA04F41688344013B10CB1012000E0BD
:1007B000002070BD01468888C0F30800704700BF64
:1007C000FEE7014600BF704710B56FF00400FFF769
:1007D0003DFF0A4800680A49B0FBF1F0094908707A
:1007E0000846007800EB4001C1EBC0104FF6FF71E6
:1007F00001EAC0000449088010BD00000400002088
:1008000000127A00180000201A0000200146114A48
:1008100012884A434FF0E0235A6100229A611A4637
:10082000126942F001021A6100BF4FF0E022106924
:1008300000F001021AB100F48032002AF5D04FF026
:10084000E022126922F001024FF0E0231A61002237
:100850009A6170471A000020FFF7B6FFFFF744FEC9
:10086000FFF70CFDFFF7BAFD002028490860284972
:10087000C1F894012749086047E00020FFF7D0FD48
:10088000254908700846007800283BD008460078C3
:10089000012822D0022817D003280AD0042830D1FA
:1008A0001A48006808B9012000E0002017490860D4
:1008B00027E016480C38006808B9012000E0002045
:1008C00012490C3908601CE01248006808B9012080
:1008D00000E000200F49086013E00C480C38006865
:1008E00008B9012000E0002008490C3908600B48D5
:1008F000D0F8940108B9012000E000200549086003
:1009000000BF02E00A20FFF781FFB6E7A081214285
:100910000080214294012342000000200000234275
:100920004009000800000020240000006C010008BD
:1009300064090008240000202C070000880100083A
:100940000000000000A24A040000000000000000B7
:10095000010203040607080900000000000000006F
:040960000000010092
:04000005080001CD21
:00000001FF
